{"abi":[{"type":"constructor","inputs":[{"name":"_initialSupply","type":"uint256","internalType":"uint256"}],"stateMutability":"nonpayable"},{"type":"function","name":"allowance","inputs":[{"name":"","type":"address","internalType":"address"},{"name":"","type":"address","internalType":"address"}],"outputs":[{"name":"","type":"uint256","internalType":"uint256"}],"stateMutability":"view"},{"type":"function","name":"approve","inputs":[{"name":"_spender","type":"address","internalType":"address"},{"name":"_value","type":"uint256","internalType":"uint256"}],"outputs":[{"name":"success","type":"bool","internalType":"bool"}],"stateMutability":"nonpayable"},{"type":"function","name":"approve_1","inputs":[{"name":"_lender","type":"address","internalType":"address"},{"name":"_spender","type":"address","internalType":"address"},{"name":"_value","type":"uint256","internalType":"uint256"}],"outputs":[{"name":"success","type":"bool","internalType":"bool"}],"stateMutability":"nonpayable"},{"type":"function","name":"balanceOf","inputs":[{"name":"","type":"address","internalType":"address"}],"outputs":[{"name":"","type":"uint256","internalType":"uint256"}],"stateMutability":"view"},{"type":"function","name":"decimals","inputs":[],"outputs":[{"name":"","type":"uint8","internalType":"uint8"}],"stateMutability":"view"},{"type":"function","name":"name","inputs":[],"outputs":[{"name":"","type":"string","internalType":"string"}],"stateMutability":"view"},{"type":"function","name":"symbol","inputs":[],"outputs":[{"name":"","type":"string","internalType":"string"}],"stateMutability":"view"},{"type":"function","name":"totalSupply","inputs":[],"outputs":[{"name":"","type":"uint256","internalType":"uint256"}],"stateMutability":"view"},{"type":"function","name":"transfer","inputs":[{"name":"_to","type":"address","internalType":"address"},{"name":"_value","type":"uint256","internalType":"uint256"}],"outputs":[{"name":"success","type":"bool","internalType":"bool"}],"stateMutability":"nonpayable"},{"type":"function","name":"transferFrom","inputs":[{"name":"_from","type":"address","internalType":"address"},{"name":"_to","type":"address","internalType":"address"},{"name":"_value","type":"uint256","internalType":"uint256"}],"outputs":[{"name":"success","type":"bool","internalType":"bool"}],"stateMutability":"nonpayable"},{"type":"event","name":"Approval","inputs":[{"name":"owner","type":"address","indexed":true,"internalType":"address"},{"name":"spender","type":"address","indexed":true,"internalType":"address"},{"name":"value","type":"uint256","indexed":false,"internalType":"uint256"}],"anonymous":false},{"type":"event","name":"Transfer","inputs":[{"name":"from","type":"address","indexed":true,"internalType":"address"},{"name":"to","type":"address","indexed":true,"internalType":"address"},{"name":"value","type":"uint256","indexed":false,"internalType":"uint256"}],"anonymous":false}],"bytecode":{"object":"0x60806040526040518060400160405280600781526020017f4120546f6b656e000000000000000000000000000000000000000000000000008152505f90816100479190610363565b506040518060400160405280600381526020017f41544b00000000000000000000000000000000000000000000000000000000008152506001908161008c9190610363565b50601260025f6101000a81548160ff021916908360ff1602179055503480156100b3575f5ffd5b5060405161132238038061132283398181016040528101906100d59190610460565b8060038190555060035460045f3373ffffffffffffffffffffffffffffffffffffffff1673ffffffffffffffffffffffffffffffffffffffff1681526020019081526020015f20819055505061048b565b5f81519050919050565b7f4e487b71000000000000000000000000000000000000000000000000000000005f52604160045260245ffd5b7f4e487b71000000000000000000000000000000000000000000000000000000005f52602260045260245ffd5b5f60028204905060018216806101a157607f821691505b6020821081036101b4576101b361015d565b5b50919050565b5f819050815f5260205f209050919050565b5f6020601f8301049050919050565b5f82821b905092915050565b5f600883026102167fffffffffffffffffffffffffffffffffffffffffffffffffffffffffffffffff826101db565b61022086836101db565b95508019841693508086168417925050509392505050565b5f819050919050565b5f819050919050565b5f61026461025f61025a84610238565b610241565b610238565b9050919050565b5f819050919050565b61027d8361024a565b6102916102898261026b565b8484546101e7565b825550505050565b5f5f905090565b6102a8610299565b6102b3818484610274565b505050565b5b818110156102d6576102cb5f826102a0565b6001810190506102b9565b5050565b601f82111561031b576102ec816101ba565b6102f5846101cc565b81016020851015610304578190505b610318610310856101cc565b8301826102b8565b50505b505050565b5f82821c905092915050565b5f61033b5f1984600802610320565b1980831691505092915050565b5f610353838361032c565b9150826002028217905092915050565b61036c82610126565b67ffffffffffffffff81111561038557610384610130565b5b61038f825461018a565b61039a8282856102da565b5f60209050601f8311600181146103cb575f84156103b9578287015190505b6103c38582610348565b86555061042a565b601f1984166103d9866101ba565b5f5b82811015610400578489015182556001820191506020850194506020810190506103db565b8683101561041d5784890151610419601f89168261032c565b8355505b6001600288020188555050505b505050505050565b5f5ffd5b61043f81610238565b8114610449575f5ffd5b50565b5f8151905061045a81610436565b92915050565b5f6020828403121561047557610474610432565b5b5f6104828482850161044c565b91505092915050565b610e8a806104985f395ff3fe608060405234801561000f575f5ffd5b506004361061009c575f3560e01c8063313ce56711610064578063313ce5671461016c57806370a082311461018a57806395d89b41146101ba578063a9059cbb146101d8578063dd62ed3e146102085761009c565b806306fdde03146100a05780630833060d146100be578063095ea7b3146100ee57806318160ddd1461011e57806323b872dd1461013c575b5f5ffd5b6100a8610238565b6040516100b59190610a5d565b60405180910390f35b6100d860048036038101906100d39190610b0e565b6102c3565b6040516100e59190610b78565b60405180910390f35b61010860048036038101906101039190610b91565b6103b1565b6040516101159190610b78565b60405180910390f35b61012661049e565b6040516101339190610bde565b60405180910390f35b61015660048036038101906101519190610b0e565b6104a4565b6040516101639190610b78565b60405180910390f35b610174610784565b6040516101819190610c12565b60405180910390f35b6101a4600480360381019061019f9190610c2b565b610796565b6040516101b19190610bde565b60405180910390f35b6101c26107ab565b6040516101cf9190610a5d565b60405180910390f35b6101f260048036038101906101ed9190610b91565b610837565b6040516101ff9190610b78565b60405180910390f35b610222600480360381019061021d9190610c56565b6109cd565b60405161022f9190610bde565b60405180910390f35b5f805461024490610cc1565b80601f016020809104026020016040519081016040528092919081815260200182805461027090610cc1565b80156102bb5780601f10610292576101008083540402835291602001916102bb565b820191905f5260205f20905b81548152906001019060200180831161029e57829003601f168201915b505050505081565b5f8160055f8673ffffffffffffffffffffffffffffffffffffffff1673ffffffffffffffffffffffffffffffffffffffff1681526020019081526020015f205f8573ffffffffffffffffffffffffffffffffffffffff1673ffffffffffffffffffffffffffffffffffffffff1681526020019081526020015f20819055508273ffffffffffffffffffffffffffffffffffffffff168473ffffffffffffffffffffffffffffffffffffffff167f8c5be1e5ebec7d5bd14f71427d1e84f3dd0314c0f7b2291e5b200ac8c7c3b9258460405161039e9190610bde565b60405180910390a3600190509392505050565b5f8160055f3373ffffffffffffffffffffffffffffffffffffffff1673ffffffffffffffffffffffffffffffffffffffff1681526020019081526020015f205f8573ffffffffffffffffffffffffffffffffffffffff1673ffffffffffffffffffffffffffffffffffffffff1681526020019081526020015f20819055508273ffffffffffffffffffffffffffffffffffffffff163373ffffffffffffffffffffffffffffffffffffffff167f8c5be1e5ebec7d5bd14f71427d1e84f3dd0314c0f7b2291e5b200ac8c7c3b9258460405161048c9190610bde565b60405180910390a36001905092915050565b60035481565b5f60045f8573ffffffffffffffffffffffffffffffffffffffff1673ffffffffffffffffffffffffffffffffffffffff1681526020019081526020015f2054821115610525576040517f08c379a000000000000000000000000000000000000000000000000000000000815260040161051c90610d3b565b60405180910390fd5b60055f8573ffffffffffffffffffffffffffffffffffffffff1673ffffffffffffffffffffffffffffffffffffffff1681526020019081526020015f205f8473ffffffffffffffffffffffffffffffffffffffff1673ffffffffffffffffffffffffffffffffffffffff1681526020019081526020015f20548211156105e0576040517f08c379a00000000000000000000000000000000000000000000000000000000081526004016105d790610da3565b60405180910390fd5b8160045f8673ffffffffffffffffffffffffffffffffffffffff1673ffffffffffffffffffffffffffffffffffffffff1681526020019081526020015f205f82825461062c9190610dee565b925050819055508160045f8573ffffffffffffffffffffffffffffffffffffffff1673ffffffffffffffffffffffffffffffffffffffff1681526020019081526020015f205f82825461067f9190610e21565b925050819055508160055f8673ffffffffffffffffffffffffffffffffffffffff1673ffffffffffffffffffffffffffffffffffffffff1681526020019081526020015f205f8573ffffffffffffffffffffffffffffffffffffffff1673ffffffffffffffffffffffffffffffffffffffff1681526020019081526020015f205f82825461070d9190610dee565b925050819055508273ffffffffffffffffffffffffffffffffffffffff168473ffffffffffffffffffffffffffffffffffffffff167fddf252ad1be2c89b69c2b068fc378daa952ba7f163c4a11628f55a4df523b3ef846040516107719190610bde565b60405180910390a3600190509392505050565b60025f9054906101000a900460ff1681565b6004602052805f5260405f205f915090505481565b600180546107b890610cc1565b80601f01602080910402602001604051908101604052809291908181526020018280546107e490610cc1565b801561082f5780601f106108065761010080835404028352916020019161082f565b820191905f5260205f20905b81548152906001019060200180831161081257829003601f168201915b505050505081565b5f8160045f3373ffffffffffffffffffffffffffffffffffffffff1673ffffffffffffffffffffffffffffffffffffffff1681526020019081526020015f205410156108b8576040517f08c379a00000000000000000000000000000000000000000000000000000000081526004016108af90610d3b565b60405180910390fd5b8160045f3373ffffffffffffffffffffffffffffffffffffffff1673ffffffffffffffffffffffffffffffffffffffff1681526020019081526020015f205f8282546109049190610dee565b925050819055508160045f8573ffffffffffffffffffffffffffffffffffffffff1673ffffffffffffffffffffffffffffffffffffffff1681526020019081526020015f205f8282546109579190610e21565b925050819055508273ffffffffffffffffffffffffffffffffffffffff163373ffffffffffffffffffffffffffffffffffffffff167fddf252ad1be2c89b69c2b068fc378daa952ba7f163c4a11628f55a4df523b3ef846040516109bb9190610bde565b60405180910390a36001905092915050565b6005602052815f5260405f20602052805f5260405f205f91509150505481565b5f81519050919050565b5f82825260208201905092915050565b8281835e5f83830152505050565b5f601f19601f8301169050919050565b5f610a2f826109ed565b610a3981856109f7565b9350610a49818560208601610a07565b610a5281610a15565b840191505092915050565b5f6020820190508181035f830152610a758184610a25565b905092915050565b5f5ffd5b5f73ffffffffffffffffffffffffffffffffffffffff82169050919050565b5f610aaa82610a81565b9050919050565b610aba81610aa0565b8114610ac4575f5ffd5b50565b5f81359050610ad581610ab1565b92915050565b5f819050919050565b610aed81610adb565b8114610af7575f5ffd5b50565b5f81359050610b0881610ae4565b92915050565b5f5f5f60608486031215610b2557610b24610a7d565b5b5f610b3286828701610ac7565b9350506020610b4386828701610ac7565b9250506040610b5486828701610afa565b9150509250925092565b5f8115159050919050565b610b7281610b5e565b82525050565b5f602082019050610b8b5f830184610b69565b92915050565b5f5f60408385031215610ba757610ba6610a7d565b5b5f610bb485828601610ac7565b9250506020610bc585828601610afa565b9150509250929050565b610bd881610adb565b82525050565b5f602082019050610bf15f830184610bcf565b92915050565b5f60ff82169050919050565b610c0c81610bf7565b82525050565b5f602082019050610c255f830184610c03565b92915050565b5f60208284031215610c4057610c3f610a7d565b5b5f610c4d84828501610ac7565b91505092915050565b5f5f60408385031215610c6c57610c6b610a7d565b5b5f610c7985828601610ac7565b9250506020610c8a85828601610ac7565b9150509250929050565b7f4e487b71000000000000000000000000000000000000000000000000000000005f52602260045260245ffd5b5f6002820490506001821680610cd857607f821691505b602082108103610ceb57610cea610c94565b5b50919050565b7f496e73756666696369656e742062616c616e63650000000000000000000000005f82015250565b5f610d256014836109f7565b9150610d3082610cf1565b602082019050919050565b5f6020820190508181035f830152610d5281610d19565b9050919050565b7f416c6c6f77616e636520657863656564656400000000000000000000000000005f82015250565b5f610d8d6012836109f7565b9150610d9882610d59565b602082019050919050565b5f6020820190508181035f830152610dba81610d81565b9050919050565b7f4e487b71000000000000000000000000000000000000000000000000000000005f52601160045260245ffd5b5f610df882610adb565b9150610e0383610adb565b9250828203905081811115610e1b57610e1a610dc1565b5b92915050565b5f610e2b82610adb565b9150610e3683610adb565b9250828201905080821115610e4e57610e4d610dc1565b5b9291505056fea264697066735822122054a509af2faf82cfc8802f50db11dbfb6226910fbcd9613cfe4f02545150d57964736f6c634300081c0033","linkReferences":{}},"methodIdentifiers":{"allowance(address,address)":"dd62ed3e","approve(address,uint256)":"095ea7b3","approve_1(address,address,uint256)":"0833060d","balanceOf(address)":"70a08231","decimals()":"313ce567","name()":"06fdde03","symbol()":"95d89b41","totalSupply()":"18160ddd","transfer(address,uint256)":"a9059cbb","transferFrom(address,address,uint256)":"23b872dd"},"id":20}